:107800000C94343C0C94513C0C94513C0C94513CE1
:107810000C94513C0C94513C0C94513C0C94513CB4
:107820000C94513C0C94513C0C94513C0C94513CA4
:107830000C94513C0C94513C0C94513C0C94513C94
:107840000C94513C0C94513C0C94513C0C94513C84
:107850000C94513C0C94513C0C94513C0C94513C74
:107860000C94513C0C94513C11241FBECFEFD8E036
:10787000DEBFCDBF11E0A0E0B1E0E0E8FBE702C071
:1078800005900D92A830B107D9F711E0A8E0B1E05A
:1078900001C01D92A739B107E1F70E94A13D0C94E8
:1078A000BE3D0C94003C1092C5001092C400109292
:1078B000C1001092C20010928000109281001092BC
:1078C0008200109285001092840010927000109235
:1078D000B6001092B2001092B0001092B10017BA28
:1078E0000895982F8091C00085FFFCCF9093C6002B
:1078F0008091C00086FFFCCF08950F931F93CF9314
:10790000DF93DA010FB7F894F999FECFAB0183E06A
:10791000FB0180935700E89507B600FCFDCFFA0104
:1079200011E0BA0160587F4F8C9111963C911197EC
:1079300020E0E901C80FD11D12960E0110935700E7
:10794000E89511243296E617F70771F785E0FA01FA
:1079500080935700E89507B600FCFDCF81E1809346
:107960005700E8950FBFDF91CF911F910F910895B8
:10797000EF92FF920F931F93DF93CF93CDB7DEB7B4
:10798000C058D0400FB6F894DEBF0FBECDBF062F53
:1079900090E09E012F5F3F4F4FEFF901E90FF11D7E
:1079A00040839F5F9038C9F7182F7E010894E11C2F
:1079B000F11C0FC0612F70E07695762F66277795C2
:1079C0006795882777FD8095982FA7010E947D3CB9
:1079D0001F5F101778F3C058DF4F0FB6F894DEBF63
:1079E0000FBECDBFCF91DF911F910F91FF90EF9010
:1079F0000895109285001092840013C08091840035
:107A000090918500895E934060F0809108018130FB
:107A100021F480E060EE0E94B83C0E94533C0C943C
:107A200000008091C00087FFE9CF8091C6000895D3
:107A3000EF92FF920F931F93CF93DF931092080161
:107A40008BE10E94713CCCE8D1E00E94F93C899323
:107A500081E0C739D807C9F76091090120E030E01B
:107A6000F901E050FF4FD901A457BE4F90818C918E
:107A7000981361E02F5F3F4F2830310589F76093FD
:107A800009019091940184E6989FA00111248091AE
:107A900095012AE0829FC0011124480F591F80914F
:107AA0009601480F511D50930B0140930A0161301C
:107AB000D1F1452BD9F188E10E94713C81E080939E
:107AC0000801EE24FF2400E010E016C00E94F93CFB
:107AD000899381E0CC38D807C9F7B80180E090E0FD
:107AE0004CE051E00E947D3C87E10E94713C08948B
:107AF000E11CF11C00581F4F80910A0190910B016D
:107B0000E816F90618F4CCE0D1E0E0CF10920901B4
:107B100060EE0E94B83C86E10E94713C0E94F93CF4
:107B20008531E1F703C089E10E94713C0E94533C1A
:107B30000C940000DF91CF911F910F91FF90EF9077
:107B40000895F89414BEE0E6F0E098E19083108286
:107B50001092C5008BE08093C40085E08093810083
:107B60009093C10086E08093C20080E098E4019782
:107B7000F1F70E94183D80E090E00895F894FFCF5F
:087B8000313233344142434429
:040000030000780081
:00000001FF
